{
  "_format": "hh-sol-artifact-1",
  "contractName": "Campaign",
  "sourceName": "contracts/Campaign.sol",
  "abi": [
    {
      "inputs": [
        {
          "internalType": "string",
          "name": "campaignTitle",
          "type": "string"
        },
        {
          "internalType": "uint256",
          "name": "requiredCampaignAmount",
          "type": "uint256"
        },
        {
          "internalType": "string",
          "name": "imgURI",
          "type": "string"
        },
        {
          "internalType": "string",
          "name": "storyURI",
          "type": "string"
        },
        {
          "internalType": "address",
          "name": "campaignOwner",
          "type": "address"
        }
      ],
      "stateMutability": "nonpayable",
      "type": "constructor"
    },
    {
      "anonymous": false,
      "inputs": [
        {
          "indexed": true,
          "internalType": "address",
          "name": "donar",
          "type": "address"
        },
        {
          "indexed": true,
          "internalType": "uint256",
          "name": "amount",
          "type": "uint256"
        },
        {
          "indexed": true,
          "internalType": "uint256",
          "name": "timestamp",
          "type": "uint256"
        }
      ],
      "name": "donated",
      "type": "event"
    },
    {
      "inputs": [],
      "name": "donate",
      "outputs": [],
      "stateMutability": "payable",
      "type": "function"
    },
    {
      "inputs": [],
      "name": "image",
      "outputs": [
        {
          "internalType": "string",
          "name": "",
          "type": "string"
        }
      ],
      "stateMutability": "view",
      "type": "function"
    },
    {
      "inputs": [],
      "name": "owner",
      "outputs": [
        {
          "internalType": "address payable",
          "name": "",
          "type": "address"
        }
      ],
      "stateMutability": "view",
      "type": "function"
    },
    {
      "inputs": [],
      "name": "receivedAmount",
      "outputs": [
        {
          "internalType": "uint256",
          "name": "",
          "type": "uint256"
        }
      ],
      "stateMutability": "view",
      "type": "function"
    },
    {
      "inputs": [],
      "name": "requiredAmount",
      "outputs": [
        {
          "internalType": "uint256",
          "name": "",
          "type": "uint256"
        }
      ],
      "stateMutability": "view",
      "type": "function"
    },
    {
      "inputs": [],
      "name": "story",
      "outputs": [
        {
          "internalType": "string",
          "name": "",
          "type": "string"
        }
      ],
      "stateMutability": "view",
      "type": "function"
    },
    {
      "inputs": [],
      "name": "title",
      "outputs": [
        {
          "internalType": "string",
          "name": "",
          "type": "string"
        }
      ],
      "stateMutability": "view",
      "type": "function"
    }
  ],
  "bytecode": "0x608060405234801561001057600080fd5b506040516106a63803806106a683398101604081905261002f916101f5565b845161004290600090602088019061009a565b506001849055825161005b90600290602086019061009a565b50815161006f90600390602085019061009a565b50600480546001600160a01b0319166001600160a01b0392909216919091179055506102e492505050565b8280546100a6906102a9565b90600052602060002090601f0160209004810192826100c8576000855561010e565b82601f106100e157805160ff191683800117855561010e565b8280016001018555821561010e579182015b8281111561010e5782518255916020019190600101906100f3565b5061011a92915061011e565b5090565b5b8082111561011a576000815560010161011f565b634e487b7160e01b600052604160045260246000fd5b600082601f83011261015a57600080fd5b81516001600160401b038082111561017457610174610133565b604051601f8301601f19908116603f0116810190828211818310171561019c5761019c610133565b816040528381526020925086838588010111156101b857600080fd5b600091505b838210156101da57858201830151818301840152908201906101bd565b838211156101eb5760008385830101525b9695505050505050565b600080600080600060a0868803121561020d57600080fd5b85516001600160401b038082111561022457600080fd5b61023089838a01610149565b965060208801519550604088015191508082111561024d57600080fd5b61025989838a01610149565b9450606088015191508082111561026f57600080fd5b5061027c88828901610149565b608088015190935090506001600160a01b038116811461029b57600080fd5b809150509295509295909350565b600181811c908216806102bd57607f821691505b602082108114156102de57634e487b7160e01b600052602260045260246000fd5b50919050565b6103b3806102f36000396000f3fe6080604052600436106100705760003560e01c80638da5cb5b1161004e5780638da5cb5b146100d95780639632e72014610111578063ed88c68e14610127578063f3ccaac01461013157600080fd5b806346c922d11461007557806348b9ef40146100a05780634a79d50c146100c4575b600080fd5b34801561008157600080fd5b5061008a610146565b60405161009791906102c7565b60405180910390f35b3480156100ac57600080fd5b506100b660015481565b604051908152602001610097565b3480156100d057600080fd5b5061008a6101d4565b3480156100e557600080fd5b506004546100f9906001600160a01b031681565b6040516001600160a01b039091168152602001610097565b34801561011d57600080fd5b506100b660055481565b61012f6101e1565b005b34801561013d57600080fd5b5061008a6102ba565b600380546101539061031c565b80601f016020809104026020016040519081016040528092919081815260200182805461017f9061031c565b80156101cc5780601f106101a1576101008083540402835291602001916101cc565b820191906000526020600020905b8154815290600101906020018083116101af57829003601f168201915b505050505081565b600080546101539061031c565b600554600154116102385760405162461bcd60e51b815260206004820152601a60248201527f726571756972656420616d6f756e742066756c6c66696c6c6564000000000000604482015260640160405180910390fd5b6004546040516001600160a01b03909116903480156108fc02916000818181858888f19350505050158015610271573d6000803e3d6000fd5b5034600560008282546102849190610357565b90915550506040514290349033907fe6add99d06d9ad7fc456e746aa162eed6211c5002ef2dacdd67b8d2016822fba90600090a4565b600280546101539061031c565b600060208083528351808285015260005b818110156102f4578581018301518582016040015282016102d8565b81811115610306576000604083870101525b50601f01601f1916929092016040019392505050565b600181811c9082168061033057607f821691505b6020821081141561035157634e487b7160e01b600052602260045260246000fd5b50919050565b6000821982111561037857634e487b7160e01b600052601160045260246000fd5b50019056fea26469706673582212202fdc82c29d226df2ebd3c37c4232b04743624c4abf9e2f0075c33819d132ed1564736f6c63430008090033",
  "linkReferences": {},
  "deployedLinkReferences": {}
}